:020000040800F2
:1000000000400020190C00085D0C00085D0C000881
:1000100000000000000000000000000000000000E0
:100020000000000000000000000000005D0C00085F
:1000300000000000000000005D0C000899020008AC
:100040005D0C00085D0C00085D0C00085D0C0008EC
:100050005D0C0008B10200085D0C00085D0C000892
:100060005D0C00085D0C00085D0C00085D0C0008CC
:100070005D0C00085D0C00085D0C00085D0C0008BC
:100080005D0C00085D0C00085D0C00085D0C0008AC
:100090005D0C00085D0C00085D0C00085D0C00089C
:1000A0005D0C00085D0C00085D0C0008D104000820
:1000B0005D0C00085D0C00085D0C00085D0C00087C
:1000C0005FF808F180B582B000AF78600A00FB1CD1
:1000D0001A70FB1C1B78002B06D0094B084A51698B
:1000E0007A680A435A6106E0054B054A5269796805
:1000F000C9430A405A61C046BD4602B080BDC046F1
:100100000010024080B582B000AF78600A00FB1C8E
:100110001A70FB1C1B78002B06D0094B084A91690A
:100120007A680A439A6106E0054B054A9269796844
:10013000C9430A409A61C046BD4602B080BDC04670
:100140000010024080B582B000AF0200FB1D1A70A3
:10015000064BFA1D127811001F220A40012191401E
:100160000A001A60C046BD4602B080BD00E100E052
:10017000B0B582B000AF02003960FB1D1A70FB1DE4
:100180001B787F2B32D92F4CFB1D1B781A000F23B5
:100190001340083B99082B4AFB1D1B7818000F23BE
:1001A0000340083B9B0806339B00D31804331B68AD
:1001B000FA1D1278100003220240D200FF20904066
:1001C0000200D2431A403B689B01FF201840FB1DF0
:1001D0001B781D0003232B40DB00984003001A43CB
:1001E0008B1D9B00E31804331A6027E0164CFB1D9F
:1001F0001B785BB29B081449FA1D127852B2920820
:10020000C03292005258F91D0978080003210140BC
:10021000C900FF2088400100C94311403A6892019B
:10022000FF201040FA1D1278150003222A40D20048
:10023000904002000A43C0339B001A51C046BD469D
:1002400002B0B0BD00ED00E000E100E080B582B09A
:1002500000AF78607B680E4A934201D9012312E017
:100260000C4B7A681202120A013A5A6001235B426F
:1002700003211800FFF77CFF064B00229A60054B14
:1002800007221A6000231800BD4602B080BDC04698
:10029000FFFFFF0010E000E080B500AF034B1B68DC
:1002A0005A1C024B1A60C046BD4680BDF4080020AF
:1002B000B0B500AF012001F025F80300012B28D1D3
:1002C000012001F03FF8144B1B781C00134B180061
:1002D00000F05EFE030099B2114B6200D1520E4B4A
:1002E0001B780133DAB20C4B1A700B4B1B78292B9D
:1002F0000AD10C4B01221A70074B00221A70074BCF
:100300000021180000F04EFE044B0021180000F000
:1003100033FEC046BD46B0BDF80800200040014095
:10032000A00800209C08002080B584B000AF786051
:100330000A00FB1C1A700023FB600B23FB18002231
:100340001A700B23FB1800221A701EE0FB1C1B788E
:1003500008229A400B23FB181B78D31A1A007B68DB
:100360009B181B781A0001231A400B23FB181B78DB
:100370009A4013001A00FB681343FB600B23FB1821
:100380001A780B23FB1801321A700B23FB181A780A
:10039000FB1C1B78082199400B009A42D6DBFB68B6
:1003A0001800BD4604B080BD80B582B000AF020029
:1003B000FB1D1A70FB1D1B78002B11D1164B18006A
:1003C00000F0E6FC144B01221A60134B00221A7154
:1003D000114A9023DB051100180000F041FC16E0E3
:1003E0000D4B180000F0D4FC0B4B01221A600A4B95
:1003F00001221A71084B01229A71074B00225A718F
:10040000054A9023DB051100180000F029FCC046C6
:10041000BD4602B080BDC0464C09002080B500AF8B
:10042000264B264A5269802189020A435A61902349
:10043000DB059022D205126821490A40A0218903D8
:100440000A431A609023DB059022D205526A1D49A7
:100450000A40882149000A435A62184B174A926998
:100460008021C9010A439A61174B184A9A81164B99
:100470000F221A60144B144A92688021C9030A4360
:100480009A60C046104BDB6940221340FAD00E4BF5
:100490000D4A126A40210A431A620B4B0A4A12683B
:1004A00020210A431A6000211B20FFF761FE1B2058
:1004B000FFF748FEC046BD4680BDC0460010024062
:1004C000FFFFC3FF0FF0FFFF0038014041030000B2
:1004D00080B582B000AFFB1D00221A70084BDB69AB
:1004E0002022134008D0064B9B8C9AB2FB1D1A7039
:1004F000044B180000F008F8C046BD4602B080BDAD
:1005000000380140F878000880B584B000AF78600A
:100510000E23FB1800221A8013E016490E23FB1845
:100520001B880E22BA18581C10801A007B689B1872
:100530001B789BB20B85C0460E4BDB6980221340B3
:10054000FAD00E23FB181B887A68D3181B78002B6F
:10055000E3D1C046074BDB6940221340FAD0054B7C
:10056000044A126A40210A431A62C046BD4604B0DA
:1005700080BDC0460038014080B500AF124B9B687B
:100580000122134005D0104B0F4A926802210A4302
:100590009A60C0460C4B9B6801221340FAD10A4B6B
:1005A000094AD26801218A43DA60074B064A9268F9
:1005B000802109060A439A60C046034B9B68002BC2
:1005C000FBDBC046BD4680BD0024014080B500AFC6
:1005D0000C4B1B680122134005D00A4B094A1268D4
:1005E00001210A431A60074B064A926801210A4317
:1005F0009A60C046034B1B6801221340FAD0C046E4
:10060000BD4680BD0024014080B500AF0A4B0A4AB8
:100610009269802189000A439A61074B064A526B0E
:1006200001210A435A63C046034B5B6B022213400D
:10063000FAD0C046BD4680BD0010024080B500AF74
:10064000074B074A526907210A435A61054B054A7D
:1006500012688021C9030A431A60C046BD4680BDA6
:10066000002401400827014080B500AF114B114A1A
:100670005269802109030A435A610E4B0D4A52699F
:10068000802189020A435A619023DB059022D2051A
:100690001268F0210A431A60074B074A1268F021DA
:1006A00089000A431A60054B054A9A62C046BD4656
:1006B00080BDC046001002400008004800240140F0
:1006C0000C60000080B582B000AF104B0F4A9268FA
:1006D00004210A439A6000237B600FE0C0460B4B65
:1006E0001B6804221340FAD0084B1B6C1900084BFE
:1006F0007A689200D1507B6801337B607B68032B62
:10070000ECDDC046BD4602B080BDC04600240140BD
:100710008C08002080B500AF80239B0201211800C7
:10072000FFF7D0FC80235B0201211800FFF7EAFCF1
:1007300001210120FFF7E6FC314B180000F028FBF7
:100740002F4B01221A602E4B00221A712C4A902343
:10075000DB051100180000F083FA0021002000F0F2
:10076000FFFD284B01221A60264B00229A71254B6F
:1007700000221A71234B0C225A71224B180000F0F0
:1007800051FD214B05221A701F4B01229A701E4BFE
:1007900000225A701C4B180000F046FE1B4B002232
:1007A0001A811A4B00225A80184B194A5A60194B69
:1007B0001B681949180000F08DFE03009BB2013B35
:1007C0009AB2124B1A80114B144A1900100000F013
:1007D0005BFB124B0021180000F0E4FB0F4B0021E3
:1007E000180000F0C9FB0E4B00221A60C0460C4BEB
:1007F0001B680C4A9342FAD9C046BD4680BDC0462C
:100800004C09002054090020340900204009002030
:10081000FFFF00000000002040420F0000400140A8
:10082000F4080020C309000080B58CB000AF3B0085
:10083000180029231A00002101F09CF83B0029220E
:100840000021180001F096F87E4B5222002118007A
:1008500001F090F87C4B00221A707C4B00229A71B8
:100860007A4B180000F0DEFC0120FFF79DFD784B6D
:100870000021180000F080FB754B0121180000F0EA
:1008800091FB9023DB050121180000F0CFFAC04650
:100890006F4B180000F07CFB02006E4B9A42F7D9B8
:1008A0009023DB050121180000F0B0FA684B00210D
:1008B000180000F077FB664B0021180000F05CFB8D
:1008C0000020FFF771FDC0469023DB0501211800D1
:1008D00000F078FA031EF7D1C0469023DB05012112
:1008E000180000F06FFA031EF7D0584B01229A71DE
:1008F000564B180000F096FC554B0121180000F0F3
:1009000051FBC046504B1B78DBB2002BFAD03B00AA
:1009100029220021180001F02DF82F23FB180022B6
:100920001A701BE02F23FB181A78464B5200D35A3B
:100930004F2B06D82F23FB181B783A000021D154E7
:1009400005E02F23FB181B783A000121D1542F23F7
:10095000FB181A782F23FB1801321A702F23FB186B
:100960001B78282BDED9374B52220021180001F0CA
:1009700001F83B0001211800FFF7D6FC02002C23F0
:10098000FB181A802C23FB181B88180000F042FF6C
:10099000031C3149181C00F029FE031C1A1C2F4BA4
:1009A0001A603B00103301211800FFF7BDFC020064
:1009B0002A23FB181A802A23FB1800229B5E002B97
:1009C00018DA2A23FB182A22BA1812881A802A2336
:1009D000FB181B88180000F01DFF021C80231B065B
:1009E00053401D49181C00F001FE031C1A1C1C4B2F
:1009F0001A600EE02A23FB181B88180000F00AFF7B
:100A0000031C1549181C00F0F1FD031C1A1C144BA3
:100A10001A60144B00221A60134B134A126801210A
:100A20000A431A60C0460F4B1B68104A9342FAD91A
:100A30000D4B0D4A126801218A431A60C046BD461B
:100A40000CB080BDA00800209C08002054090020A4
:100A5000004001404F460000CDCCCC3D5C09002059
:100A60003C090020F408002010E000E0CF0700005F
:100A700090B52B4CA54400AF2A4B1A682A493B007D
:100A8000180000F0BDFF3B001800FFF73DFD254BAF
:100A90005A6826493B00180000F0B2FF3B001800DE
:100AA000FFF732FD1F4B9A6821493B00180000F008
:100AB000A7FF3B001800FFF727FD1A4BDA681D4916
:100AC0003B00180000F09CFF3B001800FFF71CFDE6
:100AD000194B1B68181C00F0DBFE03000C001749C3
:100AE00038001A00230000F08BFF3B001800FFF7CE
:100AF0000BFD134B1B68181C00F0CAFE03000C0012
:100B0000104938001A00230000F07AFF3B0018005B
:100B1000FFF7FAFCC046BD46FB239B009D4490BDF9
:100B200014FCFFFF8C0800202079000834790008AD
:100B3000487900085C7900085C0900207879000891
:100B40003C0900209879000880B500AF084B084A9E
:100B50005269802109030A435A61064B054A12680B
:100B6000802149020A431A60C046BD4680BDC04686
:100B7000001002400008004880B500AF0549054B51
:100B80009B8A9BB28022520053409BB28B82C0460C
:100B9000BD4680BD0008004880B500AF00F022FAD5
:100BA00000F066FA194B1A68FA239900100000F059
:100BB00091FC03001800FFF749FBFFF725FDFFF745
:100BC000DBFCFFF703FDFFF74FFDFFF737FDFFF7F6
:100BD00025FC0F4B1800FFF797FCFFF79BFDFFF775
:100BE000B3FF0C4B0B4A526806210A435A60FFF7C9
:100BF000C3FFFFF767FDFFF717FEFFF739FFFFF7AA
:100C0000BBFF012000F0F6FBF1E7C046000000202A
:100C1000F878000800580140002103E00A4B5B58B7
:100C20004350043109480A4B42189A42F6D3094A04
:100C300002E0002313600432074B9A42F9D300F01C
:100C4000D1F9FFF7A9FF7047647D0008000000207C
:100C50008C0800208C08002064090020FEE70000BA
:100C600080B586B000AF7860396000237B610023D7
:100C70003B610023FB6000237B6181E001227B69F3
:100C80009A4013003B613B681B683A691340FB6064
:100C9000FA683B699A4270D13B681B79012B03D0FB
:100CA0003B681B79022B38D17B689B687A695200BC
:100CB000032191400A00D2431A407B689A607B6806
:100CC0009A683B685B7919007B695B0099400B006F
:100CD0001A437B689A607B689B889BB27A6912048E
:100CE000120C012191400A0092B2D24392B21340F9
:100CF0009AB27B689A807B689B889BB21AB23B68E9
:100D00009B7919007B691B041B0C99400B001BB2DB
:100D100013431BB29AB27B689A807B681B687A691E
:100D20005200032191400A00D2431A407B681A60A6
:100D30007B681A683B681B7919007B695B009940E6
:100D40000B001A437B681A607B68DB687A691204BF
:100D5000120C5200032191400A00D2431A407B68D2
:100D6000DA607B68DA683B68DB7919007B695B00D5
:100D700099400B001A437B68DA607B6901337B6121
:100D80007B690F2B00D879E7C046BD4606B080BD11
:100D900080B582B000AF78607B68094A1A607B68D2
:100DA00000221A717B6801225A717B6800229A71B5
:100DB0007B680022DA71C046BD4602B080BDC046E5
:100DC000FFFF000080B584B000AF78600A00BB1C54
:100DD0001A800F23FB1800221A707B681B8A9BB2B3
:100DE000BA1C128813409BB2002B04D00F23FB18AF
:100DF00001221A7003E00F23FB1800221A700F2340
:100E0000FB181B781800BD4604B080BD80B582B0C9
:100E100000AF78600A00BB1C1A80BB1C1A887B6874
:100E20009A61C046BD4602B080BDC04680B582B062
:100E300000AF78600A00BB1C1A807B68BA1C12885D
:100E40001A85C046BD4602B080BDC04680B584B09C
:100E500000AF78600A4B1B68002B02D1084B094A8F
:100E60001A60074B1B68FB60054B1A687B68D21839
:100E7000034B1A60FB681800BD4604B080BDC04635
:100E8000FC0800206409002080B584B000AF7860C1
:100E900039600E23FB1800221A800E23FB187A6893
:100EA00012881A807B682D4A934208D07A68802382
:100EB000DB059A4203D07B68294A934210D10E2366
:100EC000FB180E22BA18128870218A431A803B68D8
:100ED00059880E23FB180E22BA1812880A431A806A
:100EE0007B68204A934210D00E23FB180E22BA18BA
:100EF00012881D490A401A803B6819890E23FB1885
:100F00000E22BA1812880A431A807B680E22BA1879
:100F100012881A803B685A687B68DA623B681A88D4
:100F20007B681A857B680D4A93420BD07B680F4A19
:100F3000934207D07B680E4A934203D07B680D4AE8
:100F4000934204D13B689B7A9AB27B681A867B688D
:100F500001229A82C046BD4604B080BD002C0140EB
:100F60000004004000100040FFFCFFFF0040014073
:100F7000004401400048014080B582B000AF786075
:100F800039607B683A685A62C046BD4602B080BD8F
:100F900080B582B000AF78607B685B6A1800BD46A0
:100FA00002B080BD80B582B000AF78600A00FB1C43
:100FB0001A70FB1C1B78002B08D07B681B889BB227
:100FC000012213439AB27B681A8007E07B681B8872
:100FD0009BB2012293439AB27B681A80C046BD46F9
:100FE00002B080BD80B500AF1B4B1B4A12680121C7
:100FF0000A431A60184B184A526818490A405A6046
:10100000154B154A126816490A401A60124B124ACB
:10101000126814490A401A600F4B0F4A526812496D
:101020000A405A600C4B0C4AD26A0F218A43DA629A
:10103000094B094A126B0D490A401A63064B064ACE
:10104000526B01218A435A63034B00229A6000F0DD
:1010500079F8C046BD4680BD001002400CB8FFF8CC
:10106000FFFFF6FEFFFFFBFFFFFFC0FFACFEFFFF31
:1010700080B584B000AF0023FB600023BB60002379
:101080007B6000233B602A4B5B680C221340FB60B3
:10109000FB68042B07D0082B09D0002B31D1254B3E
:1010A000254A1A6031E0234B234A1A602DE0204B79
:1010B0005A68F0239B031340BB601D4B5A68C02342
:1010C0005B0213407B60BB689B0C0233BB607B6898
:1010D000002B05D1BB68194A5A43164B1A6014E01D
:1010E000134BDB6A0F22134001333B60396812480F
:1010F00000F0F0F903001A00BB685A430D4B1A6068
:1011000003E00C4B0C4A1A60C046094B5B68F022A6
:1011100013401B090A4AD35CDBB2FB60054B1A681B
:10112000FB68DA40034B1A60C046BD4604B080BD80
:10113000001002400000002000127A0000093D006B
:101140000400002080B582B000AF00237B60002344
:101150003B60314B304A1268802149020A431A60D1
:101160002D4B1A6880239B0213403B607B68013340
:101170007B603B68002B04D17A68A023DB009A4295
:10118000EED1254B1A6880239B02134002D0012325
:101190003B6001E000233B603B68012B38D11F4BD3
:1011A00011221A601C4B1C4A52685A601A4B1A4A88
:1011B00052685A60184B184A526819490A405A60D6
:1011C000154B154A5268882149030A435A60124B4D
:1011D000114A1268802149040A431A60C0460E4B26
:1011E0001A6880239B041340F9D00B4B0A4A5268BB
:1011F00003218A435A60084B074A526802210A4376
:101200005A60C046044B5B680C221340082BF9D18E
:10121000C046BD4602B080BD001002400020024022
:10122000FF7FC0FF80B584B000AF78600023FB6013
:10123000334BFB607B689B79002B4FD0304A304B9F
:1012400019687B681B68DB430B4013602C4A2C4BEE
:1012500059687B681B68DB430B4053607B681B79D4
:101260001A00FB689B18FB60FB68FA6811687A68D3
:1012700012680A431A60224A214B99687B681B68EE
:10128000DB430B4093601E4A1D4BD9687B681B688B
:10129000DB430B40D3607B685B79102B0ED1184A7F
:1012A000174B99687B681B680B439360144A144B77
:1012B000D9687B681B680B43D3601DE0104BFB6053
:1012C0007B685B791A00FB689B18FB60FB68FA6817
:1012D00011687A6812680A431A600DE07B681B790E
:1012E0001A00FB689B18FB60FB68FA6811687A6853
:1012F0001268D2430A401A60C046BD4604B080BDA1
:101300000004014080B584B000AF78600F23FB1863
:1013100000221A700A4B5B697A68134004D00F23CD
:10132000FB1801221A7003E00F23FB1800221A7029
:101330000F23FB181B781800BD4604B080BDC046C3
:101340000004014080B582B000AF7860034B7A683A
:101350005A61C046BD4602B080BDC046000401408F
:10136000B0B584B000AF0200FB1D1A70BB1D0A1C93
:101370001A700023FB60BB1D1B78032213409B00E7
:101380000F229A401300FB601949BB1D1B789B0874
:10139000DBB21800164ABB1D1B789B08DBB2023378
:1013A0009B009B58FA68D2431A40831C9B005A50FA
:1013B0000F48BB1D1B789B08DBB21D000C4ABB1DF0
:1013C0001B789B08DBB202339B009A58FB1D1978EF
:1013D000BB1D1B78032423409B0099400B001A433C
:1013E000AB1C9B001A50C046BD4604B0B0BDC04601
:1013F0000000014080B582B000AF0200FB1D1A70F2
:10140000084B084A126904218A431A61FB1D1B78A4
:10141000012B01D130BF00E020BFC046BD4602B065
:1014200080BDC04600ED00E080B584B000AF7860BC
:101430000023FB607B689B78002B39D0244A7B68B3
:101440001B789B08DBB2C0339B009B58FB607B681A
:101450001B781A0003231340DB00FF229A4013007D
:10146000DA43FB681340FB607B685B789B01FF22DB
:101470001A407B681B78190003230B40DB009A405D
:101480001300FA681343FB6011497B681B789B08C3
:10149000DBB2C0339B00FA685A500D4B7A68127861
:1014A00011001F220A40012191400A001A600AE03F
:1014B00007497B681B781A001F23134001229A40BA
:1014C000130080228B50C046BD4604B080BDC0468C
:1014D00000E100E0002243088B4274D303098B42F1
:1014E0005FD3030A8B4244D3030B8B4228D3030CF4
:1014F0008B420DD3FF22090212BA030C8B4202D396
:101500001212090265D0030B8B4219D300E0090ABD
:10151000C30B8B4201D3CB03C01A5241830B8B42C6
:1015200001D38B03C01A5241430B8B4201D34B03AF
:10153000C01A5241030B8B4201D30B03C01A524114
:10154000C30A8B4201D3CB02C01A5241830A8B4299
:1015500001D38B02C01A5241430A8B4201D34B0282
:10156000C01A5241030A8B4201D30B02C01A5241E6
:10157000CDD2C3098B4201D3CB01C01A524183099A
:101580008B4201D38B01C01A524143098B4201D3D4
:101590004B01C01A524103098B4201D30B01C01AFF
:1015A0005241C3088B4201D3CB00C01A5241830879
:1015B0008B4201D38B00C01A524143088B4201D3A6
:1015C0004B00C01A5241411A00D201465241104606
:1015D0007047FFE701B5002000F006F802BDC046E5
:1015E0000029F7D076E770477047C046F0B55746F8
:1015F0004E4645464300E0B446028846760A1F0E32
:10160000C40F002F47D0FF2F25D0002380259A46F6
:101610009946F600ED042E437F3F434642465D0265
:10162000D20F5B006D0A1B0E904640D0FF2B39D0C5
:1016300080220020ED00D20415437F3BFB18424678
:101640005746591C62408C4607430F2F5CD86F49A0
:10165000BF00C9598F46002E45D108239A46063B44
:101660009946DAE7424602282DD0032800D1C3E08C
:10167000012800D0A2E0002500260240D4B2760264
:10168000ED05760A2E43E407264330001CBC904645
:101690009946A246F0BD002E1AD104239A46033B78
:1016A0009946BAE72A00511E8A41901CC6E70120DC
:1016B000002DC3D0280000F03FF9431F76309D4035
:1016C00043420020BAE70124FF2514400026D6E754
:1016D000300000F031F9431F9E400023763047422E
:1016E0009A46994699E70C239A46093B994694E70E
:1016F00080260024F603FF25C1E735004846B2E7FF
:10170000350022004846AEE72904090C0800370CD2
:101710003604360C2C0C7943704367437443060C33
:1017200064183619B14203D98021490288464744DA
:101730000004000C310409188D01681E8541890ED2
:101740002943350CED19AD010D43290104D50123C1
:1017500069081D4063460D4319007F31002925DDCE
:10176000680704D00F202840042800D00435280141
:1017700003D5274980330D401900FE29A3DC01243D
:10178000AD016E0A1440CDB279E78020C003064255
:1017900007D0054205D128434602760A4446FF2574
:1017A0006DE706437602760AFF2568E70124611A91
:1017B0001B2905DD14400025002660E76346CBE7C2
:1017C0002E002023CE40591A8D406B1E9D412E4382
:1017D000730704D00F233340042B00D00436730169
:1017E00004D5012401251440002648E70124B60150
:1017F000760A1440002542E780260124F6032E4392
:101800007602760A1440FF2539E7C046B879000809
:10181000FFFFFFF770B5041E28D000F08DF89E235F
:101820001B1A962B0ADC9622D21A94406202520AA4
:10183000D8B25202520AC005104370BD992B18DC71
:101840009922D21A9440114A2240610704D00F21F4
:101850000C40042C00D00432510103D50B4B1A402C
:101860009F231B1A9201520AD8B2E2E700200022FD
:10187000DFE705222500121AB921D5402200C91A36
:101880008A40541EA2412C001443DCE7FFFFFFFBFB
:101890004200120E511C4302C9B270B55D0AC40F5A
:1018A000012915DDE02189008C466D071B0B624480
:1018B000002128000D0D2D052B431C4D52052B40FA
:1018C000520813435B00E4075B082343190070BD13
:1018D000002A15D1002D1FD0280000F02DF80A286D
:1018E0001DDC0B232A001B1ADA40130002001532FC
:1018F00095400F4A1B03121A52051B0B520DD7E7D6
:10190000002D06D080221B0B120313436D07094ADA
:10191000CEE7084A0023CBE700220023C8E70300F4
:101920000B3B9D402B000025E3E7C046FFFF0F80E7
:1019300089030000FF0700001C2101231B049842BB
:1019400001D3000C10391B0A984201D3000A083950
:101950001B09984201D30009043902A2105C401807
:101960007047C046040302020101010100000000AB
:101970000000000070B583073FD0541E002A3BD002
:10198000CEB20300032503E0621E002C34D0140005
:1019900001335A1E16702B42F6D1032C24D9FF2591
:1019A0000D402A0215432A0415430F2C11D9260095
:1019B000103E3609013636011A009B191560556034
:1019C0009560D56010329342F8D10F221440032C59
:1019D0000AD9261FB6080136B6001A009B1920C284
:1019E0009342FCD103221440002C05D0C9B21C192B
:1019F000197001339C42FBD170BD14000300CCE789
:101A00000EB410B59DB002A9029008610B48822463
:101A100088604861012040421FABC881084804CB60
:101A2000A400006801938C8100F00CF80023029A56
:101A300013701DB010BC08BC03B01847FFFFFF7F38
:101A400040040020F0B55F46444656464D46F0B48B
:101A5000C3B00C00119307919346099002F054FC17
:101A60000068199003F0DEFA1890A3891B0605D5CB
:101A700023690893002B01D101F06CF932AB259357
:101A8000002325AFBB607B6014931693179332AE8F
:101A90001A930C935B461B785C46002B1CD0252BBD
:101AA00002D119E0252B03D001342378002BF9D182
:101AB0005B46E51A10D05B463360BB6875605B1906
:101AC000BB607B6801337B60072B61DC08360C9BB5
:101AD0009C46AC4463460C932378002B61D00120D4
:101AE00040420B900020631C9B4600230D90089001
:101AF00010308146303016AA84464030D37700211A
:101B0000002282465D46637801351C00203C582C3B
:101B100000D9ABE3D448A4000459A7460D9B119407
:101B20005B420D9304230898184308902B78EBE749
:101B30003024119B1EAA1470181D48341B68547061
:101B4000AB460022089D0E930023290016ACE277D5
:101B50000B9A0F9302331943002A00DA96E380228E
:101B600095432A001A430E9B08921190002B00D037
:101B700076E37833BD4913930B9B9846002B00D135
:101B80000CE300239846002400230E930F946BE28D
:101B90003A000799099803F079FA002809D132AE82
:101BA00095E7BB68002B04D03A000799099803F029
:101BB0006DFA079B0C989B895B0601D501F05EF9D5
:101BC00043B03CBC90469946A246AB46F0BD139349
:101BD000AB46002A01D001F010FB202308990B40EE
:101BE00000D1A8E10722119B0733934301329446A9
:101BF0009C4462465C681B6825001C00002311920F
:101C000016AAD3770B9B0E940F95002B01DA00F0E8
:101C1000B9FF8023994308912100294300D1A6E10F
:101C2000002398460722B44632AB92461C000E9A17
:101C30000F9B5807D6085146DD0830432B0005009E
:101C40001140013C3031217002001D43F1D10E9250
:101C50000F93089A12946646D20700D41EE23029E8
:101C600001D101F0CDF83023129D013D2B7032AB34
:101C70005B1B10931295109A13000B9A934200DA93
:101C800013000A93002315934346002B02D00A9BAE
:101C900001330A930223089A1A40924602D00A9B03
:101CA00002330A938423089A1A40914600D0FCE23A
:101CB0000D9B0A9A9C1A002C00DCF6E26C49BA686B
:101CC0007B688846102C1FDD31001025464603E056
:101CD000103C0831102C15DD103201330E604D60C0
:101CE000BA607B60072BF3DD3A000799099803F08F
:101CF000CDF9002800D05CE7103CBA687B6832A9B7
:101D0000102CE9DCB0460E00414674600133A41883
:101D10003160BC607B60072B01DD00F05BFD16AB22
:101D2000DB7F08369846C1E26B1C98462B782A2B3D
:101D300001D101F04BFA3020404283469B44584683
:101D400000244546092801D901F0DCF990465A469D
:101D5000A30001351C196B1E1B786400A4181A001F
:101D6000303A092AF4D94246A846002C01DA01F09B
:101D70008FF80B944546C8E65046089B03430893EA
:101D80002B78C1E630246442A34600209B44904651
:101D900003005A469C00E3185B000135D3186A1E05
:101DA00014782200303A092AF4D90D9342462300D0
:101DB000ABE61393AB46002A01D001F012FA1023D0
:101DC000089A1A430892089B9B0601D400F049FD2B
:101DD0000723119A07329A4301339C469444634681
:101DE0001193536812680F930E92002B01DA00F0E2
:101DF00047FD16ABDB7F98460B9B002B01DA00F00A
:101E000065FD8023089A9A4308920E9A0F9B110051
:101E1000194301D100F053FC0F9B002B01D101F0BD
:101E200031F80E9C0F9D32ABB1461E0020002900F8
:101E30000A22002303F086FE013E30323270002376
:101E4000200029000A2203F07DFE030004000D009B
:101E50000B43EBD1320032AB9B1A12960E940F95C6
:101E60004E46109307E7C046F8790008907B0008BB
:101E70005C7B00081393AB46002A01D001F0DDF92A
:101E80000722119B07339343013294469C446246D8
:101E900011921A68169201225B68169D1793179B80
:101EA00052425C006408E44B2800210005F048FC25
:101EB000002801D000F0CDFD0122DF4B5242280066
:101EC000210003F021FE002801D000F0C2FD002215
:101ED00000231698179903F00DFE002801D001F099
:101EE000AAF816ABDB7F9846139B472B01DD00F069
:101EF0002DFFD24B12938023089A9A4308927D3B80
:101F00000A93109300230B931593BDE60820089BBA
:101F1000034308932B78F7E51393AB46002A01D0CF
:101F200001F093F91023089A1A4320230892089984
:101F30000B4000D056E6102208990A4001D100F06B
:101F40002CFE11980200006804320E9000200F90C1
:101F500016A8C3770B9B002B01DA00F012FE80233A
:101F600099430E9B08911192002B00D058E60B9BD1
:101F7000002B01D101F092F80023984600230024A1
:101F80000E930F944EE61393AB46002A01D001F056
:101F900058F91023089A1A430892202308990B40F5
:101FA00000D171E30722119B07339343013294461A
:101FB0009C4462465C681B6825001C00002311924B
:101FC00016AAD3770B9B0E940F95002B01DA00F025
:101FD0007BFC802399430891210029430B1E00D1EB
:101FE0006CE30023984617E71393AB46002A01D011
:101FF00001F01FF9089B92499B0600D4A5E0072237
:10200000119B07339343013294469C4462465C68BB
:102010001B680E930F9401231192089A134000D16C
:10202000A7E00E9A0F9B1000184301D100F008FEA4
:1020300030221EAB1A704C206A4612181278089C87
:102040005A7000220223200016ADEA770B9A18433B
:10205000002A01DA00F0EAFF80222000904302000B
:102060001A430023984608920F208C46B14632ABA3
:102070001C000E9A0F9B010065461140695C013CF3
:102080001E07217011091D090E432B003500320077
:102090001D43F0D14E460E920F93129432AB1B1B90
:1020A0001093E8E5119B1C1D1B680D93002B00DAB3
:1020B00034E52B78119427E52B7801222B2123E599
:1020C0002020089B034308932B781DE51393119B55
:1020D00016A91C1D1B68AB461A0012930023CB7770
:1020E000002A01D100F065FF0B9B002B01DA00F004
:1020F0008DFE1A000021129802F0B4FB002801D1D5
:1021000000F0C0FF129BC31A1A001093DB43DB17C9
:102110001A40002316A9C97F0A92884611940B938E
:102120001593B1E51393AB46002A00D135E716AB02
:10213000D97732E71393AB46002A01D001F06AF851
:102140004049089B9B0600D559E7089BDB0600D554
:10215000D3E3089B5B0600D4CFE3119B1A880433BA
:102160000E92002211930F920123089A134000D07F
:1021700057E716A8C3770B9B002B01DA00F079FD17
:1021800080239A4308920E9A0F9B1000184300D0A8
:1021900088E00B9B9846002B00D0F2E400230B93C1
:1021A000109332AB129366E52B786C2B01D100F0C3
:1021B000B8FD4C46089820430890A5E4AB46002A99
:1021C00001D001F023F8089B9B0601D400F01FFD0D
:1021D00011990C9A0B681A60D2175A600B000433DD
:1021E000119357E41393AB46002A00D1EBE516ABED
:1021F000D977E8E5119A1393136828210A936B465F
:102200005B181B78AB4628AD2B70002316A9CB7743
:102210001300043311930023984601330A9310935B
:10222000002312950B93159334E52B78002900D0E9
:102230006AE40122203167E4FFFFEF7F6C7B000836
:102240007C7B0008907B00080123089818430890C5
:102250002B7859E46046089B034308932B7853E49A
:10226000002398467833D0491393FDE61393AB4689
:10227000002A01D000F0D3FF139B002B00D190E483
:1022800028AD2B70002316AAD377C5E778230891D1
:10229000C54913930E9A0F9B14001C43231E1190E3
:1022A00000D16FE400239846DEE6BC684346002B6D
:1022B0000FD016AA1F239446634433600123736032
:1022C0007B6801340133BC607B60072B00DD19E2C1
:1022D00008365346002B0CD01EAB336002237360CC
:1022E0007B6802340133BC607B60072B00DD15E2A4
:1022F00008364B46802B00D15EE10B9B109A9D1A4D
:10230000002D36DDA94A7B689146102D26DD10226E
:1023100021009246099C32002E004D4603E0103EFB
:102320000832102E16DD5046103101331560506012
:10233000B9607B60072BF2DD3A000799200002F0BC
:10234000A5FE002800D034E4103EB9687B6832AAAC
:10235000102EE8DCA9460C00350016004A46641928
:10236000013332607560BC607B60072B00DDBDE12E
:102370000836089BDB0500D5B8E0129B3360109B44
:102380009C4673607B6864440133BC607B60072BB0
:1023900000DD9FE00836089B5B0743D50D9B0A9A3A
:1023A0009D1A002D3EDD824A7B689046102D27DD68
:1023B000102221009146099C32002E00454603E080
:1023C000103E0832102E17DD4846103101331560DB
:1023D0005060B9607B60072BF2DD3A00079920005E
:1023E00002F054FE002801D0FFF7E3FB103EB9686D
:1023F0007B6832AA102EE7DCA8460C0035001600D8
:1024000042466419013324C6BC607B60072B09DD9A
:102410003A000799099802F039FE002801D0FFF729
:10242000C8FBBC680D9B0A9A934200DA13000C9A11
:1024300094469C4463460C93002C00D01AE1002380
:1024400032AE7B60FFF726FB149B012B00DCF2E031
:10245000129B01343360012373607B68BC600133DD
:102460007B60072B00DDC5E20836199A0133326024
:10247000189A9846944664447260BC607B60072B4F
:1024800000DDC4E20836002200231698179903F0F5
:102490002BFB002800D0ACE1129D149B0135013BC1
:1024A00035607360E41801239C46E0444346BC60F9
:1024B0007B60072B00DDCFE0083621AB33601A9B31
:1024C0009C467360434664440133BC607B60072BC9
:1024D00000DC5FE73A000799099802F0D7FD002871
:1024E00001D0FFF766FBBC6832AE54E7139B652B47
:1024F000AADD002200231698179903F0F5FA0028A8
:1025000000D117E12B4B01343360012373607B68EA
:10251000BC6001337B60072B00DD9EE308361F9B08
:10252000149A934203DB089BDB0700D433E7199B23
:102530003360189B9C4673607B6864440133BC60C5
:102540007B60072B01DD00F0F4FB0836149B5D1E59
:10255000002D00DC1FE7154A7B689146102D00DC3A
:10256000C0E1102221009046099C32002E004D4609
:1025700004E00832103E102E00DCAFE1404610317E
:10258000013315605060B9607B60072BF1DD3A00C4
:102590000799200002F07AFD002801D0FFF709FB1F
:1025A000B9687B6832AAE5E7907B0008B07B000839
:1025B0005C7B0008AC7B00080D9B0A9A9D1A002DDD
:1025C00000DC9AE6D14A7B689146102D27DD102267
:1025D00021009246099C32002E004D4603E0103E39
:1025E0000832102E17DD504610310133156050604F
:1025F000B9607B60072BF2DD3A000799200002F0FA
:1026000045FD002801D0FFF7D4FA103EB9687B6879
:1026100032AA102EE7DCA9460C00350016004A4607
:102620006419013332607560BC607B60072B00DD8C
:10263000FBE1083661E60123089A134200D007E760
:1026400073607B68129A013301343260BC60984633
:102650007B60072B00DC2FE73A000799099802F00E
:1026600015FD002801D0FFF7A4FA7B68BC689846E6
:1026700032AE22E73A000799099802F007FD0028D8
:1026800000D1DCE6FFF795FA102208990A4000D144
:102690009FE211980200006804320E9000200F9013
:1026A00016A8C3770B9B002B00DA0CE1802399431B
:1026B0000E9B08911192002B00D092E498460B9B40
:1026C000002B00D16AE5002300240E930F942722EB
:1026D0000E9B28A930338B5416AB9C466F2532AB2A
:1026E00065445B1B10931295FFF7C5FA3A000799F2
:1026F000099802F0CBFC002801D0FFF75AFABC6819
:1027000032AE36E63A000799099802F0BFFC00287D
:1027100001D0FFF74EFABC6832AEDAE53A0007990D
:10272000099802F0B3FC002801D0FFF742FABC6818
:1027300032AEDEE51F98002800DC9DE2159A149960
:10274000130091468B4200DD89464B46002B0CDD81
:10275000129B4C4433604B4673607B68BC60013312
:102760007B60072B00DD97E308364B46DB434A4688
:10277000DB171340159AD31A9846002B00DCD7E0DC
:10278000102B01DC00F006FD604A2100914610226A
:102790007B689246099D32004C46464604E008326A
:1027A000103E102E00DCB3E05046103101331460AF
:1027B0005060B9607B60072BF1DD3A000799280073
:1027C00002F064FC002801D0FFF7F3F9B9687B68D8
:1027D00032AAE5E73A000799099802F057FC002869
:1027E00001D0FFF7E6F916ABDB7FBC68984632AE46
:1027F0005CE5149B5D1E002D00DC5EE6434B9946B4
:10280000102D29DD102332009A462E002100434668
:10281000099C4D4603E0103E0832102E17DD50464D
:102820001031013315605060B9607B60072BF2DD19
:102830003A000799200002F029FC002801D0FFF798
:10284000B8F9103EB9687B6832AA102EE7DCA946B9
:102850000C003500984616004B46756033606419CD
:1028600021E6089BDB0600D4EBE0119A13680A937B
:102870000E930432DB170F93119201D4FFF7B9FACC
:102880000E990F9A00244B4294410E930F942D23DE
:1028900016AAD3770B9B002B00DAACE38023089AAF
:1028A0009A43533B08929846FFF7B6FA11990A00EB
:1028B000096804320E9100210F9116A9CB770B9B6A
:1028C000002B00DB2AE21192002398460E9A0F9B00
:1028D0001100194301D0FFF79FFAF4E6A9460C0056
:1028E000350016004A466419013332607560BC60D9
:1028F0007B60072B00DC4DE5ECE5119B1A68043387
:102900000E92002211930F922EE4C046B07B000875
:10291000B046A14616000C004A4632604246444486
:1029200001337260BC607B60072B00DD35E3083645
:10293000129A159B944663449846149A1F9B93429F
:1029400049DB089AD20746D4129A149915008C468E
:1029500042466544CB1AAD1A9D4200DD1D00002D94
:102960000BDD424632607A68641901327560BC60E2
:102970007A60072A00DD2FE30836EA43D2171540B4
:102980005D1B002D00DC06E5D34A7B689146102DC7
:10299000A8DD102221009046099C32002E004D46F1
:1029A00003E00832103E102E98DD4046103101330E
:1029B00015605060B9607B60072BF2DD3A00079923
:1029C000200002F063FB002801D0FFF7F2F8B9689D
:1029D0007B6832AAE6E7199A3260189A94467260C8
:1029E0007A6864440132BC607A60072A00DDC7E27D
:1029F0000836A9E73A000799099802F047FB002832
:102A000001D0FFF7D6F8BC687B6832AE2DE53A00FE
:102A10000799099802F03AFB002801D0FFF7C9F89E
:102A20007B68BC68984632AE2DE53A000799099854
:102A300002F02CFB002801D0FFF7BBF8BC6832AED7
:102A40005BE4089B119A5B0600D40FE70021535EFC
:102A50000EE7169D179C2A0023002800210004F091
:102A60006FFE002800D06EE30B9B013300D1E8E23B
:102A70002023139D9D43472D00D1A6E18023089A72
:102A80005B001A43179B1B92002B00DAEFE2169AA9
:102A90009846002391460A93139C662C00D1AEE21F
:102AA000462C00D172E12B00453B594259410B9B0A
:102AB0004A469A4623AB049320AB8A4403931FAB48
:102AC000029353460193022309980093434600F072
:102AD00071FC1290672C00D0F0E2129B53441C0052
:102AE000089BDB0700D426E300230022484641462A
:102AF00002F0FAFF2300002809D1239B9C4206D94B
:102B000030215A1C23921970239B9C42F9D8129AA7
:102B10009B1A1493472D00D1A8E1139B652B00DC71
:102B2000DEE2139B662B00D1E0E21F9B1593159A02
:102B300014998A4200DA8AE2089BDB0700D5F3E2A7
:102B4000D343DB1713401092672213920A9A002A8C
:102B500000D07FE10A931B9B16AA08930023D27F23
:102B60000B939046FFF790F811990A000968043218
:102B70000E9100210F9116A9CB770B9B002B00DB48
:102B8000C8E01192002398460E9A0F9B110019433A
:102B900001D0FFF747F8FFF7F1F9402308990B4000
:102BA000E2D011980300008804330E9000200F90AB
:102BB00016A8C2770B9A002A00DA11E1802291430D
:102BC0000E9A08911193002A01D0FFF729F8FFF718
:102BD000CEF9402308990B4000D167E61198030015
:102BE000008804330E9000200F9016A8C2770B9A2D
:102BF000002A00DAF0E080221193002391430E9A1C
:102C000008919846002A01D0FFF706F957E5089B7E
:102C1000DB060CD4089B5B0609D56946119B098E1F
:102C20001A680433089211801193FEF733FF119A4A
:102C30000C9913681960130004331193FEF72AFFEF
:102C40000B9B16AAD077002B01DAFEF79AFF8023A0
:102C5000089A9A430892FEF78FFF3A00079909985D
:102C600002F014FA002801D0FEF7A3FFBC6832AED0
:102C700055E41198FFF70EFB184B01343360012324
:102C800073607B68BC6001337B60072B71DC0836A6
:102C9000002807D1149B002B04D1089BDB0701D42B
:102CA000FFF779FB199B3360189B191973607B68D8
:102CB000B96001337B60072B00DD27E23200083268
:102CC0004442002C00DCB5E003488146102C00DCB7
:102CD0004AE11026050008E0B07B0008AC7B000844
:102CE0000832103C102C00DC3DE11031013315603E
:102CF0005660B9607B60072BF2DD3A0007990998AE
:102D000002F0C4F9002801D0FEF753FFB9687B68D0
:102D100032AAE6E780230899FFF722F98023089971
:102D2000C5E42020089B0135034308932B78FEF768
:102D3000EBFE3A000799099802F0A8F9002801D0A3
:102D4000FEF737FFBC6832AEFFF700FCE54B12938D
:102D5000FFF7D1F84021099801F0DAFA079B1860D3
:102D60001861002800D15EE24023079A5361FEF704
:102D700085FE3A000799099802F088F9002801D0E9
:102D8000FEF717FF1F98BC6832AE81E723AB0493B0
:102D900020AB03931FAB029303230B9C009301947E
:102DA0004A464346099800F005FBA2461290129B42
:102DB00053441C00139B462B00D095E6129B1B78B6
:102DC000302B0FD01F9BE4188EE60B9B002B00D0FE
:102DD00054E601330B9351E611930023984675E5B1
:102DE0001193CFE6002200234846414602F07CFEC4
:102DF0000028E7D1012352469B1A1F93E41873E67B
:102E0000129A32AB9B1A1093FEF735FF129802F01C
:102E100009F9020010900300FFF778F93A000799CA
:102E2000099802F033F9002801D0FEF7C2FEB96814
:102E30007B6832AA12980133106014987B604418A2
:102E40005060BC60072B01DDFFF744FB0832160021
:102E5000FFF7A1FA0A931B9B2D2208932D23984676
:102E6000002316A9CA770B93FEF711FF1F9CE31CE2
:102E70001EDB0B9BA3421BDB159458E6012040424E
:102E8000FEF79EFE0E9B092B01D9FEF7CAFF1EE43A
:102E900001246442FEF76DFF3A000799099802F099
:102EA000F5F8002801D0FEF784FEBC6832AE5CE481
:102EB000139B023B13936B464C229B181B78013CDF
:102EC00021AD1F942B70002C00DA5AE12B236B707C
:102ED000092C00DC31E116AA3B2394466344B0463A
:102EE0009A461E0020000A2102F0EAFD013E303120
:102EF000317020000A2102F0FDFC04000928F1DCF9
:102F0000330030345A1EE4B2464614709846524597
:102F100000D376E14146791A2B00691800E0147855
:102F20009C70013301329942F9D116A98C462E22A8
:102F3000434662449446FB1A634414995B1B0A009F
:102F40009C4662441A931092012900DC27E1189AEA
:102F5000109B944663441A001093DB43DB17134025
:102F600000221592F2E5A94648460919013310607E
:102F70005460B9607B60072B00DD4FE7083259E7EA
:102F80003A000799099802F081F8002801D0FEF76D
:102F900010FE1F9BBC6832AED6E43A000799099830
:102FA00002F074F8002801D0FEF703FEBC6832AED0
:102FB000BEE40B9B062B00D906231A001093DB43BB
:102FC000DB171A40002398460B931593464B0A9241
:102FD00011941293FEF75EFE3A000799099802F0E9
:102FE00055F8002801D0FEF7E4FD149B1F9ABC6839
:102FF0009B1A32AEC1E42D239846FEF70DFF23AB9A
:10300000049320AB03931FAB029303230B9C009309
:1030100001944A464346099800F0CCF9A4460100C1
:103020002200614412900C009246C7E600230890EB
:103030009846FFF719F82D2316AAD3779846FEF77E
:1030400053FF2023139D9D431A3B0B9316E5189ABB
:10305000149B9446159A63441093002A00DC94E074
:103060001A00DB43DB171340672213926EE58022C0
:1030700012069446169B9946179B634498462D2347
:103080000A9309E516ABDB7F119498460B9B0A93D4
:10309000109300230B931593FEF7F6FD9846089BBB
:1030A000DB0705D53021272328AAD154FFF714FBCD
:1030B0000023109332AB1293FEF7DDFD129B5344B5
:1030C0001C00139B472B00D00EE5089BDB0700D5A7
:1030D0006DE6239B129A9B1A1493472D00D1C5E6E7
:1030E0001F9CE8E6707B0008A47B00081F9B1593DB
:1030F000002B5EDD0B9A002A34D1089AD20731D416
:10310000109323E500200B90FEF7FFFC3A0007998F
:10311000099801F0BBFF002801D0FEF74AFD1F9877
:10312000B9687B6832AACBE5189A159B944663442C
:103130001A00109395E7239BE9E430233034AB70F9
:10314000EC7022ABF9E6139B472B2FDC414B12931B
:103150008023089A9A4316ABDB7F08929846032394
:10316000FEF7CEFE189A159B9446634418000B9BFD
:103170009C46844463461093DB436246DB1713404E
:10318000E4E42D2364426B70A2E6109B159A981A12
:10319000431CCDE7304A7B689146FFF7BDFB089B97
:1031A000DB0700D5D3E6109A1300D6E62B4B12931B
:1031B000CEE70B9B002B02D1089BDB0702D5189BA7
:1031C000581CD4E7012201231092BFE4119B1C1D5F
:1031D0001B680B93002B08DB6B7811944546FEF7B8
:1031E00093FC16ABD977FEF7EAFD012040426B78DD
:1031F000119445460B90FEF787FC16ABD977FEF786
:10320000ECFC16AA2E239446634496E616ABD977B7
:10321000FEF7D9FF16ABD9771149FEF792FF16AB2F
:10322000D977FFF729F80C23099A01381360FEF7C4
:10323000C7FC16ABD977FEF7DDFE16ABD977FEF7E4
:103240001FFE16ABD977FEF7A4FE16ABD977FEF7B3
:1032500069FEC046747B0008B07B0008787B0008DC
:10326000907B0008F0B5444680465F4656464D4682
:103270004246F0B412690C6985B00B00039100203E
:10328000944200DD8EE014229446634499464A46F7
:10329000013CA300D6181422424493469B44336851
:1032A0001500591C5B4618680292FEF713F9031EBD
:1032B000019040D000272900B4461E002300CA46D2
:1032C0003C0000204F460D00994602CF0A04120C24
:1032D0007243090C71431219130CC9182B6812049C
:1032E0001B041B0C1B18120C9B1A2A680C0C0904DB
:1032F000120C090C1814511A09181B0408141B0C81
:1033000009040B4308C5BC45DFD25B461B684C462D
:103310006646D146002B0ED15B46029A043B9A4288
:1033200004D306E0043B013C9A4202D2196800290A
:10333000F8D043461C610399404601F057FD002830
:103340002FDB4F460020019B029D0133019329682A
:1033500004CF0B041B0C181813041B0CC31A090C04
:10336000120C8A1A191452181B0410141B0C120484
:103370001A4304C5BE42EAD20299A3008C466344B4
:103380001A68002A0DD1043B0A00994204D306E0D2
:10339000043B013C9A4202D219680029F8D0434606
:1033A0001C61019805B03CBC90469946A246AB46CC
:1033B000F0BDC046F0B55F4656464D464446F0B4B3
:1033C00014001D00016C99B08346259E029403955C
:1033D000002909D00123426C93404A608B6001F0C0
:1033E000F3FA00235A461364039F002F34DB0023B3
:1033F00033603A00D34B1A409A421AD0029C039D84
:10340000002200232000290002F06EFB002829D0B2
:103410000123249A1360269B002B00D12EE2CA4878
:103420001860013819B03CBC90469946A246AB469C
:10343000F0BDC64B249A1360029B002B00D1FDE126
:10344000C348269B002BEDD0C278C31C002A00D0B5
:103450000533269A1360E5E70123680047083360C7
:103460000397C6E716AB019317AB009322002B001E
:10347000584601F067FD3E0D0A9000D1E3E12B03B1
:10348000B44A1B0B1A43B44B20009C46169B1100F8
:1034900098460023664412930022B04B03F0FCFDD3
:1034A000AF4AB04B03F07EFBAF4AB04B02F02AFCB0
:1034B000040030000D0004F099F9AD4AAD4B03F063
:1034C00071FB02000B002000290002F01BFC04002D
:1034D0000D0004F055F9002205900023200029007A
:1034E00002F008FB002800D0B6E20123059C0D93F2
:1034F000162C10D8A049E300C91808684968029A38
:10350000039B02F00BFB002800D1AAE32300013B40
:10351000059300230D9343469E1B00230693013E13
:10352000B24600D5A7E2059B002B00DA8BE29C4651
:103530000E930023E2440B93229B092B00D99FE1B9
:103540000124052B02DD0024043B2293229B032B44
:1035500001D100F0D8FC01DC00F09DFC229B042B83
:1035600000D1A4E301230C93229B052B01D000F092
:1035700098FC239A059B944663440F930133089368
:103580001D1E01DC00F066FC089D2E0000235A463B
:1035900000215364172E0AD9012204335B0018005E
:1035A0001430110001328642F8D25B465964584605
:1035B00001F0E2F95B46099018640E2D00D972E122
:1035C000002C00D16FE1029B039C059E1093119487
:1035D000002E01DC00F031FD31000F221140CB0044
:1035E00065493611CB181C685D68F10601D400F0FE
:1035F000DAFC10981199614B16401A6A5B6A02F066
:10360000ADFE0323984602900391002E14D00123AF
:1036100099465A4F4B4633420AD001239C463A689A
:103620007B6820002900E04403F0BCFA04000D0090
:1036300076100837002EEDD12200029803992B0056
:1036400002F08CFE06000F000D9B002B09D000221B
:10365000404B3000390002F04DFA002801D000F054
:10366000C7FD404604F0C2F832003B0003F09AFA6E
:103670000022434B02F046FB424A0B00944663444F
:10368000029003910393089B002B01D100F05CFC96
:10369000059B1493089B13930C9B002B01D100F006
:1036A0001AFD139B344A013BDB00D3181A685B6890
:1036B0000020354902F052FE029A039B03F0ECFC15
:1036C000029003913900300004F05AF8050004F02C
:1036D0008DF802000B003000390003F0DDFC06001D
:1036E0000F00099A3035E9B21170541C88460298CF
:1036F000039932003B0002F011FA002800D08AE062
:1037000032003B000020134903F0C6FC02000B000E
:103710000298039902F002FA002801D000F0D8FDC7
:10372000139B012B01DC00F083FC099A139B944648
:1037300063449946534613935B46A246029C039DFD
:10374000029335E00000F07FAD7B00080F270000FA
:10375000CC7B00080000F03F01FCFFFF0000F83FB9
:1037600061436F63A787D23FB3C8608B288AC63F87
:10377000FB799F501344D33FE07B0008A87C0008EE
:1037800000001C400000C0FC0000E03F32003B0095
:103790000020BC4903F080FC22002B0002F0AAF9B3
:1037A000002801D000F06CFDCA4501D100F03CFCBE
:1037B0000022B54B2000290003F0F4F90022B24B9F
:1037C00004000D003000390003F0ECF90F00060092
:1037D00003F0D6FF804604F009F802000B00300029
:1037E000390003F059FC01239C4643463033DBB2D9
:1037F000984601234246E2445B4253441A709B467A
:1038000022002B0006000F0002F074F90028BDD042
:10381000029B54469B46149B05930A99584601F017
:10382000D3F800232370059B249A01331360269B51
:10383000002B00D1AAE31C600998F3E5380300D0FF
:10384000FEE59248FDE5169B9846179B43441E00F3
:103850008F4BF318202B00DCFEE18E4A0299B21840
:10386000D14040223800D31A9840084304F000F8B1
:103870000123894C013E091912930DE68748D1E5D1
:1038800000235A4600215364584601F075F85B4600
:10389000186401235B4208930F9300232393229320
:1038A000013309900C93179B002B00DAABE0059ACB
:1038B0000E2A00DDA7E0D300794AD3185C681B68A4
:1038C00006930794239B002B00DAFBE1069E079FDB
:1038D000029C039D32003B002000290002F03EFDC7
:1038E00003F04EFF804603F081FF32003B0003F0FF
:1038F00059F902000B002000290003F0CDFB4346DC
:10390000099A30331370089B06000F00541C012BDA
:103910004AD000225C4B03F045F900220023060048
:103920000F0002F0E1F8002800D076E7099B089A22
:103930009C469D1C5B466244AA46069C079D914698
:1039400002930FE00022504B03F02CF901239C4618
:103950000022002306000F00E24402F0C5F8002810
:1039600000D0DBE222002B003000390002F0F6FC30
:1039700003F006FF804603F039FF22002B0003F01E
:1039800011F902000B003000390003F085FB5346AB
:103990004246013B303206000F00D3461A70D14533
:1039A000D0D1029B54469B4632003B003000390088
:1039B00002F0A8F906000F0002000B000698079914
:1039C00002F098F800280CD10698079932003B00C5
:1039D00002F08AF8002800D11FE74346DB0700D435
:1039E0001BE7651E2B78099A06E0954200D153E348
:1039F000023C23782C00013D392BF6D098464346F3
:103A000001332B7009E70C9A002A4BD0229A012A25
:103A100000DC79E1089B0B9A5D1EAA4200DAB8E24D
:103A2000551B089B002B00DAC5E3069C089B069AF1
:103A3000012194469C446246584606929A4401F0FD
:103A40005FF8070031E0069A059BD21A5B420B93A0
:103A5000002306920E936FE5059F380003F0C6FE23
:103A60000B0002002900200002F03EF843424341CF
:103A7000FB1A059339E553465B42069300239A46A9
:103A800051E5C0460000F03F00002440C07B000824
:103A90003204000012040000000010FEAC7B00089D
:103AA000E07B000800270B9D069C002C0DD05346A0
:103AB000002B0ADD2300544500DDD5E0069AE41A08
:103AC000D21A06925246D31A9A460B9B002B00DC60
:103AD000F9E10C9A002A00D1C9E0002D00D1C6E01E
:103AE00039002A00584601F0C3F80A9B01001A0069
:103AF00007005846984601F00DF841460600584622
:103B000000F062FF0B9B5B1B0B9300D0AEE001212A
:103B1000584600F0F5FF0E9B8146002B00D1FFE0D8
:103B20001A000100584601F0A3F8229B8146012BA0
:103B300000DCA3E000254B461B6903339B004B448C
:103B4000586800F091FF2023181A1F235044184092
:103B500000D1E3E001331B1A042B00DCBFE31C237C
:103B6000181A069B24189C46844463468244069394
:103B7000069B002B05DD31001A00584601F0D6F8EF
:103B800006005346002B05DD49465246584601F0D3
:103B9000CDF881460D9B002B00D061E1089B002BE6
:103BA00000DC92E10C9B002B00D0D0E04B46099A40
:103BB000B9460024089D90461F0006E0310000230E
:103BC0000A22584600F00AFF060039003000FFF7CD
:103BD00049FB4346303018550134AC42EEDB3B0024
:103BE0004F4699460290089C002C00DCE8E2099BB5
:103BF0009C4600239846644431000122584601F057
:103C000095F849460A9001F0F1F8002800DCFFE140
:103C1000651E2B78099A06E0954200D177E1023CB7
:103C200023782C00013D392BF6D001332B70494607
:103C3000584600F0C9FE002F00D1EEE54346002BA8
:103C400005D0B84503D04146584600F0BDFE3900C6
:103C5000584600F0B9FEE0E520220298D31A9840B9
:103C600004E600230D9356E4534627E70A960B9A81
:103C70000A99584600F0FCFF060048E7029B002B1B
:103C800000D057E70299039A0025130309D1DB4BB3
:103C9000134206D0069B01350133069301239C464F
:103CA000E2440E9B0120002B00D14EE743E70123A5
:103CB0000C93239B002B00DCC7E01E001D000F931C
:103CC000089363E4089B002B00DDFFE500D059E179
:103CD000069807990022CA4B02F064FF029A039BE0
:103CE00001F026FF002300279946002800D102E1B9
:103CF000239B099CDB4305934946584600F064FE2C
:103D0000002F00D189E5A2E7129A002A00D159E2DA
:103D1000BC4A0B9D9446069C634488E61C2020E721
:103D2000229B012B00DCB5E2002501200DE70023DA
:103D300039000A22584600F051FE0F9B0700002B65
:103D400004DC229B022B00DDCFE20F9B0893002CAA
:103D500005DD39002200584600F0E8FF0700BA46AA
:103D6000002D00D09FE1089C099A013C9446230055
:103D700063440A9301231500029AD8461A404B4621
:103D8000A94608920693069D30002900FFF76AFABB
:103D900003000B90303339003000029301F026F815
:103DA000290004005246404601F03EF8C368050071
:103DB000002B47D10100300001F018F8834629009C
:103DC000404600F001FE5B46229A134303D1089B54
:103DD000002B00D149E2002C00DAECE0229B1C43CE
:103DE00003D1089B002B00D1E5E05B46002B00DDF2
:103DF000CCE16A464B46127A5D1C1A700A9B2C0075
:103E0000994500D1D1E1310000230A22404600F05B
:103E1000E5FD002306000A223900404657450BD035
:103E200000F0DCFD5146070000230A22404600F066
:103E3000D5FDA9468246A6E700F0D0FDA9460700B9
:103E40008246A0E701239B46B9E7012301250F9392
:103E50000893239300235A4600215364FFF7A7FBDE
:103E60004946300000F0C2FF002800DB96E6059BC3
:103E70003100013B05930A220023584600F0AEFDB5
:103E80000C9B0600002B00D051E70F9B002B00DCA1
:103E90000DE208938AE600230C93229B022B00D1AB
:103EA00007E700245B4621005C64584600F064FD8F
:103EB0005B46186401235B4208930F930233099019
:103EC00023940C93EFE40A9E21E6229B022B00DC54
:103ED00068E6089B002B00D088E149460522584639
:103EE00000F07CFD01008146300000F07FFF0A9663
:103EF000002800DCFCE63123099A1370059B541C52
:103F000001330593F8E600230C93FFF732FB059B82
:103F1000099A013305933123137088E6029B5C46AE
:103F20009B467AE4404603F061FC32003B0002F01D
:103F300039FE0022344B01F0E5FE344A0B00944672
:103F4000634402900391039300222D4B300039000B
:103F500003F0A2F8029E039F32003B0004000D0014
:103F600001F0DCFD002800D0B1E08020000684468E
:103F7000390061440B0032002000290001F0BAFD35
:103F8000002855D0002300279946B1E60998FFF78D
:103F900049FA0E9A0B9B9446EB1A9C4463460B9588
:103FA0000E9300253DE5109A119B02920393022384
:103FB0009846FFF72AFB5B46069A4D46C346914654
:103FC000002B12DD31000122404600F0AFFE4946D1
:103FD000060000F00BFF002800DC60E1029B392B9B
:103FE00000D1FBE00B9B313302936B461B7AB84642
:103FF0006C1C2B7057460A9619E6C0460000F07FED
:10400000000014403304000000001C400000C0FC0D
:10401000002804D1029BDB0701D5F9E51C00631ED3
:104020001A78302AFAD002E6139B9A46029B9B46E6
:10403000109B119C0293039435E4059B5C42002C79
:1040400000D1C5E0109811990F23A94A2340DB0045
:10405000D3181A685B6802F0A5FD241106000F0052
:10406000002C00D130E102239846013B9946A14D36
:104070004B4623420AD001239C462A686B683000D5
:104080003900E04402F08EFD06000F006410083590
:10409000002CEDD1FFF7D8FA059B013305933023AF
:1040A0002B709846ABE47968584600F065FC3900FF
:1040B00004003B690C319A1C92000C3000F01AFC91
:1040C00001222100584600F031FE82464BE60023D3
:1040D000002799460FE7139B591ECB001591844981
:1040E000C91808684968029A039B02F05BFD0290B8
:1040F00003913900300003F043FB050003F076FB29
:1041000002000B003000390002F0C6FF139B0F00C5
:1041100009991A008C463035624406004C1C0D701B
:104120009146012B1ED0A0460022734B300039006F
:1041300002F038FD0F00060003F022FB050003F03B
:1041400055FB02000B003000390002F0A5FF3035AE
:104150002570013406000F004C45E5D1159B4446FF
:104160009C466444002202980399644B01F0CAFD06
:1041700032003B0001F0BEFC002862D0651E2B78A7
:10418000099A9846149B0593434635E4069B4D4691
:104190009946029BC346392B20D0029BB846013377
:1041A0006C1C2B7057460A9641E5069BC346994600
:1041B000B846574620E5069B089A9C1A002336E429
:1041C000012414E53623169A0B9D9B1A069C2EE4B7
:1041D0000223109E119F9846FFF736FA3923B846FE
:1041E0006C1C2B7057460A96099A1CE50A967FE5C7
:1041F000089B002B00D195E60F9C002C00DC17E7F4
:10420000059B0022013B149330003B4B390002F028
:10421000C9FC060040460F00013003F0E7FA320007
:104220003B0002F0BFFC0022354B01F06BFD354A2C
:104230000B00944663440290039113940393FFF799
:104240002BFA029A039B00202C4902F025FF320032
:104250003B0001F063FC002801D1E9E61C00631E6D
:104260001A78302AFAD0FFF7D6FA069B4D469946BF
:10427000029BC346392BB1D0002C00DDB2E6B4E678
:10428000029B5D469B46149B54460593099A434600
:10429000FFF7B2FB029B002B00D045E5F2E40028BB
:1042A00000D0A2E6029BDB0700D49EE696E6229BA6
:1042B000022B1ADC4946FEF7D5FF099B30301870F7
:1042C0000F9B029008938EE402239846FFF7BCF9F7
:1042D000149B099A059315004346FFF78DFB042BA9
:1042E00000D145E43C23181A3BE40F9B0893F0E50A
:1042F000E07B0008A87C0008000024400000E03FAC
:1043000000001C400000C0FC00487047440400202E
:10431000F0B55F464D4656464446F0B40D000B35A9
:1043200083B00700162D00D8A8E007239D4300D5D1
:10433000CEE0A94200D9CBE000F01AFBF823FF330E
:104340009D4200D884E26B0A00D1C5E0042B00D95D
:104350006CE13823A9099C460133984688444346BA
:104360008C445900C94E890071180839CC68A142A3
:1043700017D0032362689A431300521B0F2A00DDF3
:10438000B0E00320002A09DB8DE0636883435A1BF9
:104390000F2A00DDA6E0002A00DB84E0E468A142E9
:1043A000F3D143460093320034690832944200D17D
:1043B0008FE10323616899430B00481B0F2800DD40
:1043C00076E172613261002871DAB14A914200D916
:1043D00034E10123C8088210934072681A43C30075
:1043E0009B1998687260E360A0609C601300C460D1
:1043F000012000998A109040984200D975E003424C
:104400000CD1032291430A1D40000092034205D1C2
:10441000009A4000043200920342F9D003239846E8
:10442000009AD3009946B144CC4692466346DC6874
:10443000A44507D14FE1002A00DB5FE1E468A44511
:1044400000D148E14246636893435A1B0F2AF2DDCC
:10445000012163190D436560E068A5680836E860CE
:1044600011438560F360B3603800DE609E60596080
:104470009A5000F07FFA2000083022E0102927D857
:10448000380000F075FA1025062302217F4E9B00AC
:10449000F3181A005C68083A944200D127E103231C
:1044A00062689A431300E268A168CA6091600122C1
:1044B000E318596838000A435A6000F05BFA20009C
:1044C000083003B03CBC90469946A246AB46F0BDCE
:1044D0000C2300203B60F4E740239846013B8021F9
:1044E0009C463FE7634600935DE70323B468626838
:1044F0009A439046AA4203D3521B0F2A00DD87E05D
:1045000023004344634A0193634B93461B6812683C
:10451000EB18013200D157E1604A944663441B0B0B
:104520001B0300930099380000F06AFD03008146E8
:10453000013361D0019B834200D9FDE0584B009AC2
:104540009A461B689C46534662441A60019B1100C0
:104550004B4500D143E15B461B68013300D14FE17D
:104560004B46019A9B1A59185346196007234A462D
:10457000134000D117E1082189464A49D21A9144D3
:10458000C91A009B38004B441B051B0DCB1A1900A0
:104590009B4600F035FD431C00D135E14B46C01A67
:1045A00001235844184353461B685B441900534683
:1045B00019604B46B3605860B44213D043460F2B8A
:1045C00000D8E1E04346072260680C3B9343063A7B
:1045D000024005201A436260E218506090600F2B81
:1045E00000D915E1304B1A68914200D919602F4B60
:1045F0001A68914200D919600323B46862689A432B
:104600001300521B9D4200D9C1E00F2A00DCBEE01E
:104610000123290065191943134361603800B5600F
:104620006B6000F0A7F9200008304AE7142B74D91A
:10463000542B00D9B0E0290B6E238CE64A0A042AD9
:1046400074D9142A00D9C2E010005C325B305200E9
:10465000082149428C469200B218944462469268FE
:104660000B318846944500D1A0E04146506888430C
:10467000834202D292689445F7D1D3689C4673680E
:104680006146A260E1608C60D460B1E67C040020E9
:10469000FF01000088080020080900200F1000001A
:1046A0000C09002008100000040900200009002067
:1046B000012163190D430143656073613361DA6061
:1046C0009A6059601850380000F054F92000083002
:1046D000F7E673688CE608239B46073BDC449B4661
:1046E000DA4443465246134200D09FE633E0DC688A
:1046F0008A1C0092A34200D155E6D0E60122E318BD
:10470000596838000A435A60E368A268D3609A6027
:1047100000F030F920000830D3E65B2294460132E5
:10472000904698449C44434659001BE68A09100071
:104730003932383052008BE7B44200D05CE7FDE6F6
:10474000009B013B009308235B429C46E1444B469F
:104750009B6899457AD14346009A1342F0D1736819
:10476000834373604000984200D9BEE6002800D120
:10477000BBE6034270D152460092009A40000432D8
:1047800000920342F9D04BE601234A4653603800B9
:1047900000F0F0F8002094E6AA22520093420DD8CF
:1047A000E90B7723D7E580214901EAE60123801050
:1047B0008340726813437360624661E7284A9342FC
:1047C00018D8A90C7C23C6E510330093AAE6542A16
:1047D00026D80A0B10006F326E30520038E71B05E6
:1047E00000D0B8E6009BB26843441800012303439D
:1047F0005360F7E67F239846013BFE219C46B1E5D6
:104800005B464A461A60B1E6002301209B46CAE691
:1048100021003800083100F051FD53461968E1E6E7
:10482000AA204000824205D8CA0B100078327730A7
:1048300052000DE70A48824205D88A0C10007D32EA
:104840007C30520004E7FE227E2001E7736889E78E
:10485000E9084B1C5B0019E653460093E0E5C046AF
:104860005405000070B5CDB283073CD0531E002A1A
:104870001FD00278AA421DD0032405E0002B18D0D7
:104880000278013BAA4215D001302042F6D1032B19
:1048900011D8002B0DD00278AA420BD0421CC018B0
:1048A00004E00132511E0978A9421AD01300904247
:1048B000F7D1002070BDFF220C0212022240FF241B
:1048C000214011430C04094E0C4302680849624020
:1048D000511891433142DED1043B0430032BF4D80C
:1048E000D7E71800E6E71300D1E7C0468080808054
:1048F000FFFEFEFE70B50F2A32D90C0004430B00F8
:10490000A40731D115000400103D2D0901352D01FA
:1049100049191E6826605E6866609E68A660DE684B
:104920001033E66010349942F3D10F234519134038
:10493000032B1BD91C1F0023A4080134A400CE584C
:10494000EE5004339C42FAD103232D1909191A4061
:1049500005D00023CC5CEC5401339A42FAD170BDEF
:104960000500002AF5D1FAE70500F2E71A00F8E79A
:104970007047C0467047C046C36C70B504000D0058
:10498000002B0AD0AA009B18186800280ED00268D5
:104990001A6000230361C36070BD2122042100F06E
:1049A0000DFCE064031EEDD10020F5E70126AE40CA
:1049B000721D92000121200000F000FC0028F3D0BD
:1049C00045608660E5E7C046002906D04B68C26CAA
:1049D0009B00D3181A680A6019607047F8B54F46F3
:1049E0004646C0B40F0081460E001C0000200D6931
:1049F0001437396801300B041B0C5343090C514325
:104A00001B191C0C09191B040C0C1B0C0904CB18DA
:104A100008C78542EDDC002C08D0B3689D420ADA55
:104A20002B1D9B00F31801355C60356130000CBC18
:104A300090469946F8BD73684846591CFFF79CFF9D
:104A40003100336980469A1C92000C310C30FFF71C
:104A500051FF4A467368D26C9B00D3181A683260C3
:104A60001E604646DCE7C0460300010C0022002918
:104A700001D103041032190E01D108321B02190FA3
:104A800001D104321B01990F01D102329B00002B8E
:104A900005DB20205B0000D47047501CFCE71000B1
:104AA000FAE7C046036801005A0708D00020DA0779
:104AB00004D49A0720D402209B080B607047180486
:104AC0000022002801D11B0C1032FF20184201D116
:104AD00008321B0A180701D104321B09980701D1BB
:104AE00002329B08D80704D45B082020002BE5D0B5
:104AF00001320B601000E1E75B080B600130DDE77D
:104B000010B50C000121FFF737FF01234461036159
:104B100010BDC046F0B55F4656464D464446F0B41B
:104B20000E69146985B00F001500A64204DA33003F
:104B3000170026000D001C0033199846BB687968E1
:104B4000984500DD0131FFF717FF1422030094465A
:104B500063449B4643469B005B44190002930390C9
:104B60005B4600228B4503D2029904C39942FCD8CC
:104B70001423A4009A4614372300BC46AA44B60066
:104B800053440097B44401939A4553D253461B684B
:104B90001E04360C21D05C4600276146009D04CDE2
:104BA000200013041B0C7343994623681B041B0C41
:104BB0004B44DB19170C77432268120CBA181F0CF0
:104BC000D2191B04170C1B0C1204134308C4A9426E
:104BD000E5D853468C4647601B681E0C23D05B46C5
:104BE00000221B6858461D0011006746009C228861
:104BF0002D0C724355196A181B0411041B0C0B432E
:104C0000036008CC45681B0C73432904090C591830
:104C1000130CCB188446190C0430A742E7D83A008D
:104C2000674694467B6004239946019BCA44CB4463
:104C30005345ABD84346002B0EDD029B043B1A685C
:104C4000002A09D1424603E0043B1968002902D139
:104C5000013A002AF8D19046039B424618001A6197
:104C600005B03CBC90469946A246AB46F0BDC04656
:104C7000F8B546464F460323C0B480460E001400E4
:104C8000134037D1A41024D043469D6C002D3AD058
:104C9000002301279946274207D1641019D02868BC
:104CA00000281BD005002742F7D02A0031004046DB
:104CB000FFF730FF002E1BD04246D26C736894463B
:104CC0009B0063441A68641032601E600600002C6A
:104CD000E5D130000CBC90469946F8BD2A00290069
:104CE0004046FFF717FF4B46286003600500DAE7F0
:104CF0000600D2E70B4A013B9B009A580023FFF7BE
:104D00006DFE0600BEE701214046FFF735FE064B6B
:104D10000500436101230361434698640023036057
:104D2000B6E7C046D07C000871020000F0B54D46E1
:104D300044465F465646F0B40E0033695711994613
:104D4000B9444B465D1CB36883B080461400496883
:104D50009D4203DD01315B009D42FBDC4046FFF7D5
:104D60000BFE030082461433002F06DDB9001A0043
:104D70005B18002102C29342FCD131001F2032692E
:104D8000143192008A18204026D02024241AA446E8
:104D900000240F68019387403C43674610C310C945
:104DA000FC408A42F5D8019B5C60002C01D04D4646
:104DB0000235534642465046013D1D617368D26C30
:104DC0009B00D3181A6832601E6003B03CBC90464A
:104DD0009946A246AB46F0BD01C901C38A42E8D953
:104DE00001C901C38A42F7D8E3E7C04602690B69EB
:104DF00010B5D21A0400101E12D120009A001430EF
:104E000014318318891801E098420AD2043B04390E
:104E10001A680C68A242F7D0A242924101201043C6
:104E200010BD0020FCE7C046F8B54F4646461400CA
:104E30000B691269C0B49B1A0F00002B19D10D0029
:104E400014218C4692001435A444AB18624401E04E
:104E50009D4266D2043B043A1E6811688E42F7D028
:104E600067D22E0065463B0027001C0001239946AF
:104E700007E0002B61DB002326000D009946143665
:104E800014357968FFF778FD4A4680462169C2608B
:104E90003869890083009C46894647460024AC4413
:104EA000B144143708CD02CE1A04120C14190A04A6
:104EB000120CA21A1C0C0B0CE31A14141B1912046A
:104EC000120C1C1404371B0413433A1F1360B14522
:104ED000E8D8AC451CD93E002A0008CA1904090CC0
:104EE00009190C141B0C1B1909041C14090C1B04B4
:104EF0000B4308C69445F0D8ED436544AD08013531
:104F0000AD007F193A1F002B04D1043A1368013811
:104F1000002BFAD04346186140460CBC9046994697
:104F2000F8BD0021FFF728FD012303610023436141
:104F3000F3E7002366469946A3E73E0025001436B2
:104F4000143590E7F0B501211C0083B0089F1500CF
:104F5000FFF712FD210364000600090B640D02D067
:104F600080235B0319430191002D1AD068460095F8
:104F7000FFF798FD002831D1009B019D7361B56159
:104F80006B426B410225ED1A3561002C14D0194B90
:104F90009C46352364442418181A099B3C60186009
:104FA00019E001A8FFF77EFD019B2030736101230A
:104FB00001253361002CEAD10F4B9C460F4B604416
:104FC000EB189B00F31838605869FFF74DFD6D0131
:104FD000099B281A1860300003B0F0BD019D202302
:104FE0002A001B1A9A401300C540009A01951343EA
:104FF0007361C4E7CDFBFFFFCEFBFFFFFFFFFF3F69
:10500000002370B5064C050008002360FBF71EFF67
:10501000431C00D070BD2368002BFBD02B60F9E748
:105020006009002010B5830727D00378002B26D015
:105030000300032102E01A78002A1CD001330B423E
:10504000F9D119680F4A104C8A188A4322420FD1AD
:10505000043319680B4A8A188A43224208D1043360
:105060001968084A8A188A432242F1D000E00133C5
:105070001A78002AFBD1181A10BD0300E1E70020BE
:10508000FAE7C046FFFEFEFE80808080F0B55646FF
:105090005F464D464446F0B4936883B001900E00DD
:1050A0009246002B78D013680024994600230868A4
:1050B0009B464F468B68002C49D01D0098469C4269
:1050C0004FD39023B289DB001A422FD03169431AA3
:1050D000994673695800C318D80FC3185B109846D7
:1050E000631C4B444046434501D998461800802331
:1050F000DB001A4238D001000198FFF709F9051EBC
:1051000055D04A463169FFF7F5FBB2892A4B134067
:1051100080221343B381434628004A463561A046A6
:105120002500484473619B1A3060B360424659467B
:1051300000F0A6F93268B36842443260100052466B
:1051400092685B1B141B5246B360946024D03A688B
:105150007C6893460837002CF9D01D0098469C4285
:10516000AFD22500A046E1E70200019800F0D4F993
:10517000051ED0D1019C3169200000F09FF80C235E
:1051800023604023B28901201343B3815246002398
:1051900040429360536003E0002352460020536076
:1051A00003B03CBC90469946A246AB46F0BD0C23EA
:1051B000019A1360E5E7C0467FFBFFFF10B551433E
:1051C000FFF7A6F8041E26D00300083B5A68032305
:1051D0009A43043A242A16D80300132A0DD9002131
:1051E0000833016041601B2A07D98160C160242A0D
:1051F0000ED10300016118334161002220001A60C2
:105200005A609A6010BD0021FCF7B4FB2000F9E75A
:1052100003001033F1E70020F4E7C046F8B50C00B6
:105220000600FFF7A5FB204FBB685D6803239D4385
:105230001E4B2C1B9C466444240B1D4B013C240339
:105240009C4207DD00213000FFF7DAFEBB685B19E6
:10525000984204D03000FFF78DFB0020F8BD61427A
:105260003000FFF7CDFE431C0DD001232D1BBA6883
:105270001D43104B55601A683000141B1C60FFF76B
:1052800079FB0120EAE700213000FFF7B9FEBB6897
:10529000C21A0F2ADEDD08490968401A054908606C
:1052A00001210A435A60D5E77C040020EF0F00007B
:1052B000FF0F00000C09002088080020F0B54746C9
:1052C000050080B40C1E3ED0FFF752FB01232100E5
:1052D000984608394E684246330003209343CC1861
:1052E0006268824360488768BC425AD04746626021
:1052F00037420BD10827BC460E688444891B9B1992
:105300008E68664566D0CF68F760BE600126A71834
:105310007F68374236D0554A1E434E60CB50934289
:1053200014D8DB08FF3A9C10FF3AA2404468DB0027
:105330002243426018188368C8608B608160D9601E
:105340002800FFF717FB04BC9046F0BD5A0A042A58
:105350004FD89C092600393438366400A40004195B
:10536000083CA268032794424AD05068B84383425D
:1053700002D292689442F8D1D468CC608A60A1606D
:10538000D160DDE79B183A4FA268BA4240D0E4688A
:105390001E43D460A260354A4E60CB509342D5D8AC
:1053A000BFE79B184246324206D10A68891A8C68C8
:1053B0009B18CA68E260946001242E4A1C4312685C
:1053C0004C6081609342BBD32B4B28001968FFF7D8
:1053D00025FFB5E74646A018406830423ED1A06898
:1053E000D318E268C260906042461A434A60CB50CC
:1053F000A6E7142A14D816005C325B365400ADE7D9
:105400000123B610B3404268134343602200B4E75F
:105410001E43D1609160CA608A604E60CB508FE7B6
:10542000542A05D81C0B26006F346E36640095E7AD
:10543000AA246400A24205D8DC0B26007834773613
:1054400064008BE70D4CA24205D89C0C26007D34ED
:105450007C36640082E7FE247E267FE742461A43BC
:105460004A60CB506CE7C0467C040020FF0100007E
:10547000840400208408002008090020540500004E
:1054800070B588420BD98B18984208D2991A531ECE
:10549000002A03D0CA5CC254013BFBD270BD0F2A64
:1054A00009D80500002AF9D00023CC5CEC54013364
:1054B0009A42FAD1F2E70C0004430B00A40726D16C
:1054C00015000400103D2D0901352D0149191E68F4
:1054D00026605E6866609E68A660DE681033E660DF
:1054E00010349942F3D10F2445191440032C10D9DC
:1054F0000023043CA4080134A400CE58EE50043329
:105500009C42FAD103232D1909191A40CAE7050054
:10551000CAE72200C6E7C046F0B556464D464446A7
:105520005F46F0B4804685B00E1E914600D1CBE0B8
:105530003700083FFFF71CFA7A684D460323140032
:105540000B35BA469C43162D4AD810231025A94581
:105550004AD89C427BDAD34938198968019088423D
:1055600000D1ECE0406801000290012003900800A7
:1055700001218843019984468B46DC446146012021
:105580004968014200D17CE00121114231D04946F5
:105590004046FEF7BDFE8146002800D19CE1012374
:1055A00002007968083A99437F18BA4200D13CE179
:1055B000221F242A00D929E10300132A00D90BE174
:1055C0003200116819605168596092689A60310020
:1055D0004046FFF773FE4046FFF7CCF9484649E0E6
:1055E00004339D432B1EB2DA0C2342460020136085
:1055F00040E03A68BA1A93465946032249689143F3
:105600000A00A21801929A42C1DB5B465A465F46E5
:105610009268DB680837D3609A60221F242A00D979
:1056200010E13B00132A09D95B4631689960716823
:10563000D9601B2A00D921E1103308363268DA46D6
:105640001A607268019C5A60B2683E009A60631BDF
:105650000F2B24D85346012152465B680B4023434D
:105660005360220052445368194351604046FFF78B
:1056700081F9300005B03CBC90469946A246AB4645
:10568000F0BD032102988C468843011999421FDB23
:10569000019A0C00D3689268D3609A60D7E75246AB
:1056A000504651190122406810400543504645605C
:1056B00018001043CB1848605868083102435A60FC
:1056C0004046FFF7FBFDD1E71100FEF721FED1E7D1
:1056D0000120104200D05AE760463A68BA1A934651
:1056E0005268824389180291994200DA89E7019A47
:1056F0005F46D36892680837D3609A605B465A4623
:10570000DB689268D3609A60221F242A00D991E056
:105710003B00132A09D95B46316899607168D960EA
:105720001B2A00D996E0103308363268029C1A60B2
:105730007268DA465A60B2683E009A6087E70320D2
:105740000199844649688143280009191030019065
:1057500081424BDAD20700D519E760463A68BA1A97
:10576000934652688243019851180291884200DDA5
:1057700047E75B465A465F469268DB680837D36066
:105780009A60221F242A00D997E03B00132A09D9E6
:105790005B46316899607168D9601B2A00D991E035
:1057A0001033083632681A6072685A60B2689A60BC
:1057B0005B4659193B4B40469960029B5A1B01239B
:1057C0001A434A605A46526813401D435B465D6067
:1057D000FFF7D0F838004DE731680160716841602B
:1057E0001B2A17D8320008330832EAE62D4B7A1903
:1057F0009A600123491B194351607A68404613405F
:105800001D437D60FFF7B6F8300033E73100FFF746
:1058100037FEDCE6B16803008160F168C160242ACC
:1058200022D0320010331032CBE653680322934368
:10583000E4180CE731003800FFF722FE3E00029C1E
:10584000DA4604E731003800FFF71AFE3E00019CFB
:10585000DA46FCE65B46B1681961F1685961242AB1
:1058600016D01833103660E7326903000261010078
:1058700032007069183318324861A2E65B46B1689D
:105880001961F1685961242A0ED018331036D5E613
:105890005B4632699A615A4671692033D161183684
:1058A00043E7C0467C0400205B4632699A615A4651
:1058B00071692033D1611836C0E631003800FFF736
:1058C000DFFD75E75B46B1681961F1685961242A0B
:1058D00007D01833103665E74046FFF74BF8002035
:1058E000C8E65B4632699A615A4671692033D161D4
:1058F000183657E703460B437FD4002243088B42F8
:1059000074D303098B425FD3030A8B4244D3030B46
:105910008B4228D3030C8B420DD3FF22090212BA0B
:10592000030C8B4202D31212090265D0030B8B4287
:1059300019D300E0090AC30B8B4201D3CB03C01A71
:105940005241830B8B4201D38B03C01A5241430B4C
:105950008B4201D34B03C01A5241030B8B4201D33C
:105960000B03C01A5241C30A8B4201D3CB02C01AA7
:105970005241830A8B4201D38B02C01A5241430A1F
:105980008B4201D34B02C01A5241030A8B4201D30E
:105990000B02C01A5241CDD2C3098B4201D3CB01B5
:1059A000C01A524183098B4201D38B01C01A524164
:1059B00043098B4201D34B01C01A524103098B4268
:1059C00001D30B01C01A5241C3088B4201D3CB0053
:1059D000C01A524183088B4201D38B00C01A524136
:1059E00043088B4201D34B00C01A5241411A00D2E6
:1059F00001465241104670475DE0CA0F00D049424F
:105A0000031000D34042534000229C4603098B42BE
:105A10002DD3030A8B4212D3FC22890112BA030A46
:105A20008B420CD3890192118B4208D389019211C8
:105A30008B4204D389013AD0921100E08909C3094D
:105A40008B4201D3CB01C01A524183098B4201D34F
:105A50008B01C01A524143098B4201D34B01C01A3A
:105A6000524103098B4201D30B01C01A5241C308B2
:105A70008B4201D3CB00C01A524183088B4201D321
:105A80008B00C01A5241D9D243088B4201D34B003C
:105A9000C01A5241411A00D20146634652415B107E
:105AA000104601D34042002B00D54942704763465F
:105AB0005B1000D3404201B50020FBF795FD02BD0D
:105AC0000029F8D016E770478446101C62468C46C1
:105AD000191C634600E0C0461FB500F0F9FF00281E
